{
  "contractName": "PictureAssets",
  "abi": [
    {
      "inputs": [],
      "stateMutability": "nonpayable",
      "type": "constructor"
    },
    {
      "anonymous": false,
      "inputs": [
        {
          "indexed": false,
          "internalType": "uint256",
          "name": "id",
          "type": "uint256"
        },
        {
          "indexed": false,
          "internalType": "string",
          "name": "accountAddress",
          "type": "string"
        },
        {
          "indexed": false,
          "internalType": "string",
          "name": "ipfsInfo",
          "type": "string"
        },
        {
          "indexed": false,
          "internalType": "string",
          "name": "name",
          "type": "string"
        },
        {
          "indexed": false,
          "internalType": "string",
          "name": "description",
          "type": "string"
        },
        {
          "indexed": false,
          "internalType": "uint256",
          "name": "vote",
          "type": "uint256"
        }
      ],
      "name": "PictureCreated",
      "type": "event"
    },
    {
      "anonymous": false,
      "inputs": [
        {
          "indexed": false,
          "internalType": "uint256",
          "name": "id",
          "type": "uint256"
        },
        {
          "indexed": false,
          "internalType": "uint256",
          "name": "vote",
          "type": "uint256"
        }
      ],
      "name": "PictureVote",
      "type": "event"
    },
    {
      "inputs": [],
      "name": "pictureCount",
      "outputs": [
        {
          "internalType": "uint256",
          "name": "",
          "type": "uint256"
        }
      ],
      "stateMutability": "view",
      "type": "function",
      "constant": true
    },
    {
      "inputs": [
        {
          "internalType": "uint256",
          "name": "",
          "type": "uint256"
        }
      ],
      "name": "pictures",
      "outputs": [
        {
          "internalType": "uint256",
          "name": "id",
          "type": "uint256"
        },
        {
          "internalType": "string",
          "name": "accountAddress",
          "type": "string"
        },
        {
          "internalType": "string",
          "name": "ipfsInfo",
          "type": "string"
        },
        {
          "internalType": "string",
          "name": "name",
          "type": "string"
        },
        {
          "internalType": "string",
          "name": "description",
          "type": "string"
        },
        {
          "internalType": "uint256",
          "name": "vote",
          "type": "uint256"
        }
      ],
      "stateMutability": "view",
      "type": "function",
      "constant": true
    },
    {
      "inputs": [
        {
          "internalType": "string",
          "name": "accountAddress",
          "type": "string"
        },
        {
          "internalType": "string",
          "name": "ipfsInfo",
          "type": "string"
        },
        {
          "internalType": "string",
          "name": "name",
          "type": "string"
        },
        {
          "internalType": "string",
          "name": "description",
          "type": "string"
        },
        {
          "internalType": "uint256",
          "name": "vote",
          "type": "uint256"
        }
      ],
      "name": "createPicture",
      "outputs": [],
      "stateMutability": "nonpayable",
      "type": "function"
    },
    {
      "inputs": [
        {
          "internalType": "uint256",
          "name": "_id",
          "type": "uint256"
        }
      ],
      "name": "votePicture",
      "outputs": [],
      "stateMutability": "nonpayable",
      "type": "function"
    }
  ],
  "bytecode": "0x60806040526000805534801561001457600080fd5b50610aef806100246000396000f3fe608060405234801561001057600080fd5b506004361061004c5760003560e01c80634a291142146100515780637a40a05c1461007f57806389b7e97814610094578063d0d5d99f146100ab575b600080fd5b61006461005f366004610830565b6100be565b60405161007696959493929190610896565b60405180910390f35b61009261008d366004610830565b610312565b005b61009d60005481565b604051908152602001610076565b6100926100b93660046109a0565b61066e565b6001602081905260009182526040909120805491810180546100df90610a55565b80601f016020809104026020016040519081016040528092919081815260200182805461010b90610a55565b80156101585780601f1061012d57610100808354040283529160200191610158565b820191906000526020600020905b81548152906001019060200180831161013b57829003601f168201915b50505050509080600201805461016d90610a55565b80601f016020809104026020016040519081016040528092919081815260200182805461019990610a55565b80156101e65780601f106101bb576101008083540402835291602001916101e6565b820191906000526020600020905b8154815290600101906020018083116101c957829003601f168201915b5050505050908060030180546101fb90610a55565b80601f016020809104026020016040519081016040528092919081815260200182805461022790610a55565b80156102745780601f1061024957610100808354040283529160200191610274565b820191906000526020600020905b81548152906001019060200180831161025757829003601f168201915b50505050509080600401805461028990610a55565b80601f01602080910402602001604051908101604052809291908181526020018280546102b590610a55565b80156103025780601f106102d757610100808354040283529160200191610302565b820191906000526020600020905b8154815290600101906020018083116102e557829003601f168201915b5050505050908060050154905086565b6000818152600160208181526040808420815160c0810190925280548252928301805491939284019161034490610a55565b80601f016020809104026020016040519081016040528092919081815260200182805461037090610a55565b80156103bd5780601f10610392576101008083540402835291602001916103bd565b820191906000526020600020905b8154815290600101906020018083116103a057829003601f168201915b505050505081526020016002820180546103d690610a55565b80601f016020809104026020016040519081016040528092919081815260200182805461040290610a55565b801561044f5780601f106104245761010080835404028352916020019161044f565b820191906000526020600020905b81548152906001019060200180831161043257829003601f168201915b5050505050815260200160038201805461046890610a55565b80601f016020809104026020016040519081016040528092919081815260200182805461049490610a55565b80156104e15780601f106104b6576101008083540402835291602001916104e1565b820191906000526020600020905b8154815290600101906020018083116104c457829003601f168201915b505050505081526020016004820180546104fa90610a55565b80601f016020809104026020016040519081016040528092919081815260200182805461052690610a55565b80156105735780601f1061054857610100808354040283529160200191610573565b820191906000526020600020905b81548152906001019060200180831161055657829003601f168201915b5050505050815260200160058201548152505090508060a001805180919061059a90610a90565b905250600082815260016020818152604090922083518155828401518051859492936105cb93908501920190610797565b50604082015180516105e7916002840191602090910190610797565b5060608201518051610603916003840191602090910190610797565b506080820151805161061f916004840191602090910190610797565b5060a091820151600591909101558101516040805184815260208101929092527fc2788367f5f22166d23d810fc869d5b6077a0e98932a4c9a1d1aefd14c302c80910160405180910390a15050565b60008054908061067d83610a90565b91905055506040518060c0016040528060005481526020018681526020018581526020018481526020018381526020018281525060016000805481526020019081526020016000206000820151816000015560208201518160010190805190602001906106eb929190610797565b5060408201518051610707916002840191602090910190610797565b5060608201518051610723916003840191602090910190610797565b506080820151805161073f916004840191602090910190610797565b5060a082015181600501559050507f2d136ea0eaa6953e846ada3ea52ef061ea55e3fadf248c9ebc9b2df9ee30d875600054868686868660405161078896959493929190610896565b60405180910390a15050505050565b8280546107a390610a55565b90600052602060002090601f0160209004810192826107c5576000855561080b565b82601f106107de57805160ff191683800117855561080b565b8280016001018555821561080b579182015b8281111561080b5782518255916020019190600101906107f0565b5061081792915061081b565b5090565b5b80821115610817576000815560010161081c565b60006020828403121561084257600080fd5b5035919050565b6000815180845260005b8181101561086f57602081850181015186830182015201610853565b81811115610881576000602083870101525b50601f01601f19169290920160200192915050565b86815260c0602082015260006108af60c0830188610849565b82810360408401526108c18188610849565b905082810360608401526108d58187610849565b905082810360808401526108e98186610849565b9150508260a0830152979650505050505050565b634e487b7160e01b600052604160045260246000fd5b600082601f83011261092457600080fd5b813567ffffffffffffffff8082111561093f5761093f6108fd565b604051601f8301601f19908116603f01168101908282118183101715610967576109676108fd565b8160405283815286602085880101111561098057600080fd5b836020870160208301376000602085830101528094505050505092915050565b600080600080600060a086880312156109b857600080fd5b853567ffffffffffffffff808211156109d057600080fd5b6109dc89838a01610913565b965060208801359150808211156109f257600080fd5b6109fe89838a01610913565b95506040880135915080821115610a1457600080fd5b610a2089838a01610913565b94506060880135915080821115610a3657600080fd5b50610a4388828901610913565b95989497509295608001359392505050565b600181811c90821680610a6957607f821691505b60208210811415610a8a57634e487b7160e01b600052602260045260246000fd5b50919050565b6000600019821415610ab257634e487b7160e01b600052601160045260246000fd5b506001019056fea2646970667358221220bee34c738e127e2179a9eb6da7cf18436e0b3bc5868bd14f2fa922d63a731ffc64736f6c63430008090033",
  "immutableReferences": {},
  "source": "// SPDX-License-Identifier: MIT\npragma solidity ^0.8.7;\n\n// create contract for the PictureAssets with 4 field (id, name, description, vote)\ncontract PictureAssets {\n\tuint public pictureCount = 0;\n\n\tstruct Picture {\n\t\tuint id;\n\t\tstring accountAddress;\n\t\tstring ipfsInfo;\n\t\tstring name;\n\t\tstring description;\n\t\tuint vote;\n\t}\n\n\tmapping(uint => Picture) public pictures;\n\n\tevent PictureCreated (\n\t\tuint id,\n\t\tstring accountAddress,\n\t\tstring ipfsInfo,\n\t\tstring name,\n\t\tstring description,\n\t\tuint vote\n\t);\n\n\tevent PictureVote (\n\t\tuint id,\n\t\tuint vote\n\t);\n\n\tconstructor() {\n\t\t// createPicture(\"Check out derektruong.com\");\n\t}\n\n\tfunction createPicture(string memory accountAddress, string memory ipfsInfo, string memory name, string memory description, uint vote) public {\n\t\tpictureCount ++;\n\t\tpictures[pictureCount] = Picture(pictureCount, accountAddress, ipfsInfo, name, description, vote);\n\n\t\temit PictureCreated(pictureCount, accountAddress, ipfsInfo, name, description, vote);\n\t}\n\n\tfunction votePicture(uint _id) public {\n\t\tPicture memory _picture = pictures[_id];\n\t\t_picture.vote ++;\n\t\tpictures[_id] = _picture;\n\t\temit PictureVote(_id, _picture.vote);\n\t}\n\t\n}",
  "sourcePath": "/Volumes/EDITHMAC/CodeSite/nodejs/devfest/brainshield-client/contracts/PictureAssets.sol",
  "compiler": {
    "name": "solc",
    "version": "0.8.9+commit.e5eed63a.Emscripten.clang"
  },
  "schemaVersion": "3.4.3",
  "updatedAt": "2021-10-28T07:43:30.568Z",
  "networkType": "ethereum",
  "devdoc": {
    "kind": "dev",
    "methods": {},
    "version": 1
  },
  "userdoc": {
    "kind": "user",
    "methods": {},
    "version": 1
  }
}